{
  "contractName": "DVideo",
  "abi": [
    {
      "inputs": [],
      "payable": false,
      "stateMutability": "nonpayable",
      "type": "constructor"
    },
    {
      "anonymous": false,
      "inputs": [
        {
          "indexed": false,
          "internalType": "uint256",
          "name": "id",
          "type": "uint256"
        },
        {
          "indexed": false,
          "internalType": "string",
          "name": "hash",
          "type": "string"
        },
        {
          "indexed": false,
          "internalType": "string",
          "name": "title",
          "type": "string"
        },
        {
          "indexed": false,
          "internalType": "address",
          "name": "author",
          "type": "address"
        },
        {
          "indexed": false,
          "internalType": "uint256",
          "name": "like_count",
          "type": "uint256"
        }
      ],
      "name": "LikeVideo",
      "type": "event"
    },
    {
      "anonymous": false,
      "inputs": [
        {
          "indexed": false,
          "internalType": "uint256",
          "name": "id",
          "type": "uint256"
        },
        {
          "indexed": false,
          "internalType": "string",
          "name": "hash",
          "type": "string"
        },
        {
          "indexed": false,
          "internalType": "string",
          "name": "title",
          "type": "string"
        },
        {
          "indexed": false,
          "internalType": "address",
          "name": "author",
          "type": "address"
        },
        {
          "indexed": false,
          "internalType": "uint256",
          "name": "like_count",
          "type": "uint256"
        }
      ],
      "name": "VideoUploaded",
      "type": "event"
    },
    {
      "constant": true,
      "inputs": [],
      "name": "name",
      "outputs": [
        {
          "internalType": "string",
          "name": "",
          "type": "string"
        }
      ],
      "payable": false,
      "stateMutability": "view",
      "type": "function"
    },
    {
      "constant": true,
      "inputs": [],
      "name": "videoCount",
      "outputs": [
        {
          "internalType": "uint256",
          "name": "",
          "type": "uint256"
        }
      ],
      "payable": false,
      "stateMutability": "view",
      "type": "function"
    },
    {
      "constant": true,
      "inputs": [
        {
          "internalType": "uint256",
          "name": "",
          "type": "uint256"
        }
      ],
      "name": "videos",
      "outputs": [
        {
          "internalType": "uint256",
          "name": "id",
          "type": "uint256"
        },
        {
          "internalType": "string",
          "name": "hash",
          "type": "string"
        },
        {
          "internalType": "string",
          "name": "title",
          "type": "string"
        },
        {
          "internalType": "address",
          "name": "author",
          "type": "address"
        },
        {
          "internalType": "uint256",
          "name": "like_count",
          "type": "uint256"
        }
      ],
      "payable": false,
      "stateMutability": "view",
      "type": "function"
    },
    {
      "constant": false,
      "inputs": [
        {
          "internalType": "string",
          "name": "_videoHash",
          "type": "string"
        },
        {
          "internalType": "string",
          "name": "_title",
          "type": "string"
        }
      ],
      "name": "uploadVideo",
      "outputs": [],
      "payable": false,
      "stateMutability": "nonpayable",
      "type": "function"
    },
    {
      "constant": false,
      "inputs": [
        {
          "internalType": "uint256",
          "name": "_videoId",
          "type": "uint256"
        }
      ],
      "name": "likeVideo",
      "outputs": [],
      "payable": true,
      "stateMutability": "payable",
      "type": "function"
    }
  ],
  "bytecode": "0x6080604052600080556040518060400160405280600681526020017f44566964656f000000000000000000000000000000000000000000000000000081525060019080519060200190610053929190610066565b5034801561006057600080fd5b5061010b565b828054600181600116156101000203166002900490600052602060002090601f016020900481019282601f106100a757805160ff19168380011785556100d5565b828001600101855582156100d5579182015b828111156100d45782518255916020019190600101906100b9565b5b5090506100e291906100e6565b5090565b61010891905b808211156101045760008160009055506001016100ec565b5090565b90565b611087806200011b6000396000f3fe60806040526004361061004a5760003560e01c806306fdde031461004f57806327260d5c146100df5780638a5447c51461010d578063c61b5f4c1461026c578063e6821bf514610297575b600080fd5b34801561005b57600080fd5b506100646103f8565b6040518080602001828103825283818151815260200191508051906020019080838360005b838110156100a4578082015181840152602081019050610089565b50505050905090810190601f1680156100d15780820380516001836020036101000a031916815260200191505b509250505060405180910390f35b61010b600480360360208110156100f557600080fd5b8101908080359060200190929190505050610496565b005b34801561011957600080fd5b5061026a6004803603604081101561013057600080fd5b810190808035906020019064010000000081111561014d57600080fd5b82018360208201111561015f57600080fd5b8035906020019184600183028401116401000000008311171561018157600080fd5b91908080601f016020809104026020016040519081016040528093929190818152602001838380828437600081840152601f19601f820116905080830192505050505050509192919290803590602001906401000000008111156101e457600080fd5b8201836020820111156101f657600080fd5b8035906020019184600183028401116401000000008311171561021857600080fd5b91908080601f016020809104026020016040519081016040528093929190818152602001838380828437600081840152601f19601f8201169050808301925050505050505091929192905050506109fa565b005b34801561027857600080fd5b50610281610ddc565b6040518082815260200191505060405180910390f35b3480156102a357600080fd5b506102d0600480360360208110156102ba57600080fd5b8101908080359060200190929190505050610de2565b6040518086815260200180602001806020018573ffffffffffffffffffffffffffffffffffffffff1673ffffffffffffffffffffffffffffffffffffffff168152602001848152602001838103835287818151815260200191508051906020019080838360005b83811015610352578082015181840152602081019050610337565b50505050905090810190601f16801561037f5780820380516001836020036101000a031916815260200191505b50838103825286818151815260200191508051906020019080838360005b838110156103b857808201518184015260208101905061039d565b50505050905090810190601f1680156103e55780820380516001836020036101000a031916815260200191505b5097505050505050505060405180910390f35b60018054600181600116156101000203166002900480601f01602080910402602001604051908101604052809291908181526020018280546001816001161561010002031660029004801561048e5780601f106104635761010080835404028352916020019161048e565b820191906000526020600020905b81548152906001019060200180831161047157829003601f168201915b505050505081565b600181101580156104a957506000548111155b61051b576040517f08c379a00000000000000000000000000000000000000000000000000000000081526004018080602001828103825260168152602001807f566964656f204964206d7573742062652076616c69640000000000000000000081525060200191505060405180910390fd5b600073ffffffffffffffffffffffffffffffffffffffff163373ffffffffffffffffffffffffffffffffffffffff1614156105be576040517f08c379a000000000000000000000000000000000000000000000000000000000815260040180806020018281038252600a8152602001807f76616c696420757365720000000000000000000000000000000000000000000081525060200191505060405180910390fd5b6105c6610f68565b600260008381526020019081526020016000206040518060a001604052908160008201548152602001600182018054600181600116156101000203166002900480601f0160208091040260200160405190810160405280929190818152602001828054600181600116156101000203166002900480156106875780601f1061065c57610100808354040283529160200191610687565b820191906000526020600020905b81548152906001019060200180831161066a57829003601f168201915b50505050508152602001600282018054600181600116156101000203166002900480601f0160208091040260200160405190810160405280929190818152602001828054600181600116156101000203166002900480156107295780601f106106fe57610100808354040283529160200191610729565b820191906000526020600020905b81548152906001019060200180831161070c57829003601f168201915b505050505081526020016003820160009054906101000a900473ffffffffffffffffffffffffffffffffffffffff1673ffffffffffffffffffffffffffffffffffffffff1673ffffffffffffffffffffffffffffffffffffffff1681526020016004820154815250509050806060015173ffffffffffffffffffffffffffffffffffffffff166108fc349081150290604051600060405180830381858888f193505050501580156107de573d6000803e3d6000fd5b50806080018051809190600101815250508060026000848152602001908152602001600020600082015181600001556020820151816001019080519060200190610829929190610fad565b506040820151816002019080519060200190610846929190610fad565b5060608201518160030160006101000a81548173ffffffffffffffffffffffffffffffffffffffff021916908373ffffffffffffffffffffffffffffffffffffffff160217905550608082015181600401559050507f084bf88d80810b6a1ddcf468e461675db24a018f4ca2865cd740554ab29da555600054826020015183604001513385608001516040518086815260200180602001806020018573ffffffffffffffffffffffffffffffffffffffff1673ffffffffffffffffffffffffffffffffffffffff168152602001848152602001838103835287818151815260200191508051906020019080838360005b83811015610951578082015181840152602081019050610936565b50505050905090810190601f16801561097e5780820380516001836020036101000a031916815260200191505b50838103825286818151815260200191508051906020019080838360005b838110156109b757808201518184015260208101905061099c565b50505050905090810190601f1680156109e45780820380516001836020036101000a031916815260200191505b5097505050505050505060405180910390a15050565b6000825111610a71576040517f08c379a00000000000000000000000000000000000000000000000000000000081526004018080602001828103825260108152602001807f766964656f20686173682065786974730000000000000000000000000000000081525060200191505060405180910390fd5b6000815111610ae8576040517f08c379a00000000000000000000000000000000000000000000000000000000081526004018080602001828103825260108152602001807f7469746c6520686173682065786974730000000000000000000000000000000081525060200191505060405180910390fd5b600073ffffffffffffffffffffffffffffffffffffffff163373ffffffffffffffffffffffffffffffffffffffff161415610b8b576040517f08c379a000000000000000000000000000000000000000000000000000000000815260040180806020018281038252600a8152602001807f757365722065786974730000000000000000000000000000000000000000000081525060200191505060405180910390fd5b60008081548092919060010191905055506040518060a0016040528060005481526020018381526020018281526020013373ffffffffffffffffffffffffffffffffffffffff16815260200160008152506002600080548152602001908152602001600020600082015181600001556020820151816001019080519060200190610c16929190610fad565b506040820151816002019080519060200190610c33929190610fad565b5060608201518160030160006101000a81548173ffffffffffffffffffffffffffffffffffffffff021916908373ffffffffffffffffffffffffffffffffffffffff160217905550608082015181600401559050507f90daba497ab07e5d32b9cc5fd2b8352124d5a5adffc885eec603663213fd4eae60005483833360006040518086815260200180602001806020018573ffffffffffffffffffffffffffffffffffffffff1673ffffffffffffffffffffffffffffffffffffffff168152602001848152602001838103835287818151815260200191508051906020019080838360005b83811015610d33578082015181840152602081019050610d18565b50505050905090810190601f168015610d605780820380516001836020036101000a031916815260200191505b50838103825286818151815260200191508051906020019080838360005b83811015610d99578082015181840152602081019050610d7e565b50505050905090810190601f168015610dc65780820380516001836020036101000a031916815260200191505b5097505050505050505060405180910390a15050565b60005481565b6002602052806000526040600020600091509050806000015490806001018054600181600116156101000203166002900480601f016020809104026020016040519081016040528092919081815260200182805460018160011615610100020316600290048015610e945780601f10610e6957610100808354040283529160200191610e94565b820191906000526020600020905b815481529060010190602001808311610e7757829003601f168201915b505050505090806002018054600181600116156101000203166002900480601f016020809104026020016040519081016040528092919081815260200182805460018160011615610100020316600290048015610f325780601f10610f0757610100808354040283529160200191610f32565b820191906000526020600020905b815481529060010190602001808311610f1557829003601f168201915b5050505050908060030160009054906101000a900473ffffffffffffffffffffffffffffffffffffffff16908060040154905085565b6040518060a00160405280600081526020016060815260200160608152602001600073ffffffffffffffffffffffffffffffffffffffff168152602001600081525090565b828054600181600116156101000203166002900490600052602060002090601f016020900481019282601f10610fee57805160ff191683800117855561101c565b8280016001018555821561101c579182015b8281111561101b578251825591602001919060010190611000565b5b509050611029919061102d565b5090565b61104f91905b8082111561104b576000816000905550600101611033565b5090565b9056fea265627a7a723158204403d3946687892c594f9b50d4cd1cf1a4cd7d20bace7cd7abed17581bd2af6a64736f6c63430005100032",
  "source": "// SPDX-License-Identifier: MIT\r\npragma solidity >=0.4.21 <0.9.0;\r\n\r\ncontract DVideo {\r\n  uint public videoCount = 0;\r\n  string public name = \"DVideo\";\r\n  \r\n  struct Video{\r\n    uint id;\r\n    string hash;\r\n    string title;\r\n    address author;\r\n    uint like_count;\r\n  }\r\n\r\n  event VideoUploaded(\r\n    uint id,\r\n    string hash,\r\n    string title,\r\n    address author,\r\n    uint like_count \r\n  );\r\n\r\n  event LikeVideo(\r\n    uint id,\r\n    string hash,\r\n    string title,\r\n    address author,\r\n    uint like_count\r\n  );\r\n\r\n  mapping(uint=>Video) public videos;\r\n\r\n  constructor() public {\r\n  }\r\n\r\n  function uploadVideo(string memory _videoHash, string memory _title) public {\r\n    // Make sure the video hash exists\r\n    require(bytes(_videoHash).length>0,\"video hash exits\");\r\n\r\n    // Make sure video title exists\r\n    require(bytes(_title).length>0,\"title hash exits\");\r\n\r\n    // Make sure uploader address exists\r\n    require(msg.sender!=address(0),\"user exits\");\r\n\r\n\r\n    // Increment video id\r\n    videoCount++;\r\n    // Add video to the contract\r\n    videos[videoCount] = Video(videoCount, _videoHash, _title, msg.sender, 0);\r\n    // Trigger an event\r\n    emit VideoUploaded(videoCount, _videoHash, _title, msg.sender, 0);\r\n  }\r\n\r\n\r\n  function likeVideo(uint  _videoId) external payable {\r\n    require(_videoId>=1 && _videoId<=videoCount, \"Video Id must be valid\");\r\n\r\n    require(msg.sender!=address(0),\"valid user\");\r\n\r\n    Video memory _video = videos[_videoId];\r\n    address(uint160(_video.author)).transfer(msg.value);\r\n    _video.like_count ++;\r\n    videos[_videoId] = _video;\r\n\r\n    emit LikeVideo(videoCount, _video.hash, _video.title, msg.sender, _video.like_count);\r\n\r\n  }\r\n\r\n}\r\n",
  "sourcePath": "C:\\Users\\Anurag\\OneDrive\\Desktop\\github projects\\andrew martin\\decenTube\\src\\contracts\\DVideo.sol",
  "compiler": {
    "name": "solc",
    "version": "0.5.16+commit.9c3226ce.Emscripten.clang"
  },
  "schemaVersion": "3.4.3",
  "updatedAt": "2021-09-06T14:30:23.232Z",
  "networkType": "ethereum",
  "devdoc": {
    "methods": {}
  },
  "userdoc": {
    "methods": {}
  }
}